:20000000004000209182000001C9011001C9011001C9011001C9011001C9011001C901104B
:1C00200001C9011001C9011001C9011001C9011001C9011001C901103FC9011089
:20003C002DE9FF47C34C0F460646F80B80F05881B80880F04981607ADFF804A3B90F80F0C2
:20005C00CB80E079390914D2B80BC0F06A8104F13C000AF062FB061C08D0706830B1756842
:20007C00F068B6F9241000222023A84727F4005757E1012800F0AB80E06870300AF037FBD3
:20009C00684608F070FE20B1009904F198000AF085F900254FF00108E570A74884F805800F
:2000BC000AF002FAA5492A4604F160000AF029FB50460068006B80476061A2782169A369BC
:2000DC00012AA0EB010018444FEA1030A06105D163781BB9E169B0EBC12F3AD9DFF864923D
:2000FC0084F80280A9F1150000686570000A30D340F60900A08494F8310000F0F00040F0BD
:20011C00010084F8310094F8300000F0F00084F83000A5620AF0EFFA4B4603F6FF7211686F
:20013C006FF0020C21F00201116004F12401C3F8FBCF854AC3F8EB1F11688908FCD3C3F8EA
:20015C00FBCFD3F8FF1F41F00201C3F8FF1F00F005F97E4A10687E4920F00200256140F402
:20017C0000701060032341F8043C41F230038B604046086050238B6008604FF4CA638B6084
:20019C000860237841F80C0C15601BB9E06838300AF0C7FA022008F083FE112004F0E2FD9C
:2001BC00307C10B90E2004F0DDFD207A18B12572052008F075FE674965710878A57140B11B
:2001DC000D7004F1BC0004210AF0B3FA01E00020E07127F00807A4E020B1042008F060FEC2
:2001FC0000206072B168088840F602084FF0000980450AD0B0F5C15F07D00A8B4FF61F602C
:20021C00104040F43470088306E00A8A4FF61F60104040F4347008822069F0B1DAF85400CF
:20023C00016804208847C0B1DAF800002569006B8047F168401B738AF060020BF260981833
:20025C008842F06002D240184008F06040F6C41181422CBFB0F5FA7FF16094F8310010F0BF
:20027C000F0F0CD1718C08F10700884207D1B56930466FF480714A464FF00073A847364930
:20029C0004F160004A460AF03CFA607860B10220ADF8040001A809F01BFABDF80C0084F885
:2002BC0001904011A4F860010120E07084F8049007F08CFB7569494630464FF080630A46EF
:2002DC00A84727F000572CE003F098FE04F144000AF023FA27F0020708B147F0020720E0A7
:2002FC000AF009FA014604F140000AF016FA061C12D0356AA8080FD225EA05003062084637
:20031C0000F02CF8706850B12A46F068B6F9241075680023A84702E0084600F01FF827F4E8
:20033C00804727B104F1BC0039460AF002FA0090BDE8FF87982A0020E5450000E19800009C
:20035C008C0100101500044010100440000004600C410440E135002035270000DFF800F0D9
:20037C0061C001102DE9F04F09AFADF13C0D08900A92388809911E46ADF81800101C08BF99
:20039C00002000F08481002700F101094FF0FF3A4FF0010BB8466CE1252940F06381107812
:2003BC00521C0A922D2818BFADF8068005D15846551CADF8060010780A9530281CBF42464E
:2003DC00434605D10A9908785A465B46491C0A912A28CDF80080554616D1306804930A9953
:2003FC00CDF808A0C01C4B1C20F00300001D306050F8044C0A93002C0878009418D5ADF86A
:20041C0006B06442009413E044460AE0610001EBC4010918A1F130040A9908780094491C54
:20043C000A91302801DB3A28F0DBCDF808A004932E282BD10A9908782A2801F101010A914A
:20045C0011D13068CDF80880C01C20F00300001D306050F8045C002D48BF454608782B46C5
:20047C00491C0A9111E0454643460AE0690001EBC5010918A1F130050A9908782B46491C75
:20049C000A91302801DB3A28F0DB02930AB1224604926C2804D04C2818BFADF8048005D144
:2004BC000A990878ADF804B0491C0A910BA9CDF80C800FAB07916428059300F08B8069289D
:2004DC0000F08880BDF818C0752872D078286ED06F286AD0702850D063283DD073281ED014
:2004FC0009980A990128A1F101010A9115D96B490C68B5F1FF3F03D0A84288BF6D1C00D8E5
:20051C00099D029508A80AA932466B46A0473F180A99039801F1010974E040462AE0306802
:20053C000A99C01C20F00300001D306050F8040CBCF1000F01F10109014608B955A001460C
:20055C00079109F07FFE0390B5F1FF3F5BD0A842C4BF281C039056E03068C01C20F00300CE
:20057C00001D306010F8040C5D468DF82C000A990395584601F1010945E0082035680490F3
:20059C00E81C20F00300001D306050F8041C082210230FA806F032FC401E07904021017014
:2005BC000A99079801F1010929E0082302E0102300E00A230A99306801F10109C01C20F068
:2005DC000300001D306050F8041CAA42BCBF2A1C049210E00A99306801F10109C01C20F091
:2005FC000300001D306050F8041CAA42BCBF2A1C04926FF009030FA806F000FC0790059D37
:20061C00281A0390009C241ABDF8065000945DB906E008A8202109AA09F031F8009C7F1C77
:20063C00641E0094F5D503980546401E039075B9BDF80600E8B10098401E009019D408A842
:20065C00202109AA09F01BF800987F1CF4E70798411C0791017809AA08A809F010F8039864
:20067C007F1CE1E708A809AA09F009F87F1C09F101094A460A9812F8011C401C00290A9087
:20069C007FF48AAE089808B14146017038460FB0BDE8F08F286E756C6C2900C088BA0000D3
:2006BC002DE9F84FDFF8BC92AF4989F80000002008600821AD4801700D2141804FF4087161
:2006DC008180AB48AB4901608A7EAB480270FF2ACB7E437008BFFF2B0C7F84704E7FC670B0
:2006FC008D7F0571C97F417114D1FF2C08BFFF2E10D1FF2D08BFFF290CD1A0490A780270A8
:20071C004A7842708A788270CA78C2700A790271497941719A490278DFF868A2DFF868B248
:20073C000A70FF2642784A7082788A70C278CA7002790A714079954A48718AF800608AF877
:20075C0001608AF802608AF803608AF804608AF8056000208E490880DBF834408D49607812
:20077C00087021781170A0788B490870A16808798A49421E0A70E07889490870E068894974
:20079C00086008B909F000FB60698749086008B909F0FAFAA0698549086008B909F0F4FA8A
:2007BC00DFF80C82834C98F8040009F0E7FD206000283ED098F805007F4D09F0DFFD286004
:2007DC0008B9206832E098F806007C4F09F0D6FD386020B9206809F0D9FD286826E098F887
:2007FC00070009F0CBFD7649086038B9206809F0CDFD286809F0CAFD386817E063490A789D
:20081C0098F80000921C504380B209F0B7FD6D498860216890B9084609F0B8FD286809F017
:20083C00B5FD386809F0B2FD6548006809F0AEFD002009F0A9FA4FF480418DE00120087122
:20085C002068067321684E73206886732168CE7320680674002021684E742268D072A022EB
:20087C002168487103212068C28001720720216848720020226890722821206841820121ED
:20089C00C176002021684877226882F85E00012021680877226882F85D0029680871286817
:2008BC00067329684E73286886732968CE7328680674002029684E742A68D072296848715B
:2008DC002A6890724FF4207029680022C88008818A7401212A68D17439680E733A6856738D
:2008FC0039688E733A68D67339680E7400213A6856743B68D97201213A68117100213B68A7
:20091C0059713968C8800881002088723968887405203A68D0742C480168884723490A6833
:20093C0006461068804721490A6852F8043F00209847DBF80C101A4B0A8818782349024381
:20095C000A80304622490A689047504600F042F800F044F84FF4005199F80000BDE8F44FCE
:20097C0004F042B96E4F0020044F0020604E0020084F0020B63F00502C4E0020E8120050AE
:20099C003C4E0020344E00208CBA00007B4F00200C4F00206D4F00206B4F0020724F0020AD
:2009BC006C4F0020F04E0020F84E0020FC4E002008120020104F0020144F0020184F00204F
:2009DC001C4F0020A43500205C0E0020544F0020600E0020DFF800F01D6E0110DFF800F072
:2009FC004D710110BB482DE9F84F0025BA4CB849056094F8E200002800F06581012800F096
:200A1C002F81B64E02283CD0032840F05C8151F8250CD4F8B8100029A0F5C060C4F8D4001C
:200A3C00B8BF49420028B8BF4042814226DA4FF08057D7F8A4014568B4F8BC0030214FF481
:200A5C007F42082300903046A847D7F8A4014568B4F8C00004214FF4F8021223009030466F
:200A7C00A847D7F8A401B4F8D070456820214FF440620A2330460097A847012584F8D85045
:200A9C001CE151F8258C09F02DFD2F4600B901273946934F38680028FCD0B146012609F1BD
:200ABC000409D9F82CA03E6009B109F021FDCAF30720C4F8BC0009F015FDAA4600B9B246F9
:200ADC003B68002BFCD0D9F800B0BAF1000F3E6001D009F00DFDCBF38440C4F8C00009F0BC
:200AFC0001FDAA4600B9B2463B68002BFCD0D9F81C90BAF1000F3E6001D009F0F9FCC9F351
:200B1C008120C4F8D000B8F5C061C4F8B81000F09C8094F8D80068B9C4F8D410D4F8C0007D
:200B3C00C4F8C800D4F8BC70C4F8C470D4F8D030C4F8CC30D4F8D410D4F8BC30002954BF05
:200B5C0002206FF0010004F1C802176801EB41014018411000EB917107EBA1001060D4F826
:200B7C00C810C4F8C43000291CDD1E293CDDD4F8CC0030B93429B4BF15391E21C4F8C810DD
:200B9C0025E02A29BABFD4F8C8000B381E20C4F8C800D4F8C4003F28B4BF401C3F20C4F8EE
:200BBC00C4001FE0D4F8CC00032812D011F10B0FC6BFD4F8C8000B30301CC4F8C800D4F8A5
:200BDC00C4000028C4BF401E051CC4F8C450032508E011F1150FC6BFD4F8C8001530301C5B
:200BFC00C4F8C800C4F8CC504FF08057D7F8A401B4F8C43030214FF47F424568374800933F
:200C1C000823A847D7F8A40104214FF400321123456832480096A847B4F8C860D7F8A40168
:200C3C0004214FF4F802122345682C480096A847D7F8A40120214FF440620A23B4F8CC60BC
:200C5C00456826480096A84701E084F8D85040F2FF50404502D8801C40452FD2082030E019
:200C7C0051F8251C1F4F4BF2F5204843060A3868C0F3814001280CD11B480068006880475F
:200C9C0007F0A0FD09F03AFC3111C010484306EBE03694F8E50030B91448006820F07F40E4
:200CBC008019460801E084F8E5501148310C0660012741600F4D8760287808B90B2000E02B
:200CDC00052084F8E40001F0ABFFBDE8F88FC0462D400C402C500C40400D002000A00C40CC
:200CFC0000800C40B43F0050EC010010102009403C600C401DB900002DE9F04F0F46834C1C
:200D1C000168E16241688068ADF1140DE0608048A16080477F48E16A0160A168DFF814A2E2
:200D3C004160E168DFF8089281607B49002FA046C1605AD03D68A86808B178490160E86857
:200D5C0008B177490160774C2878207068786070A878BE68A07031787368E170B2686360F2
:200D7C002E69A2607968E6610868E06068692062A8696062287F84F828002A6AE2627868BD
:200D9C0086681EB9002008F0FFFF00E066617868C06818B9002008F0F7FF00E0A06178680D
:200DBC00406818B9002008F0EFFF00E020612869E061F86881680E6806B95C4E5A494FF05B
:200DDC00010B4E60C66881F801B02EB9002008F0DBFFF8684D4601E04D462E600068544615
:200DFC00FE68A0617068E06106E0002008F0CCFF4FF0010B54464D4628684F49466804F14B
:200E1C00080352465020B04710B1286880688047D8F8080080470026494F039069467E701F
:200E3C0046483E7004226061304608F007F90098B0F5801F0ED020B908F0B6FB02F0B8FE21
:200E5C000AE007F05BFA09F0B1FA4FF00409A7F8029003E008F0A8FB4FF00409394FB246D5
:200E7C002868C7F808A08069E660804778603648468080F800B00A2009F080FAFF210A223C
:200E9C00A06209F060FCE01CFF21022209F05BFC0A2009F073FA2D49086008680A223146CE
:200EBC0009F051FC3046FFF7FBFB584607F0E4FC27480188FF2906D1022101807822001DA7
:200EDC00314609F040FC032000F046F82F682148314602AA01AB7D6880F800901020A8471E
:200EFC00A06AE2690527401D9DF8081000F8011BD8F80C107F1EF7D1921E0398E261884789
:200F1C0001F04CFA05B0BDE8F08FC046540E002041490010F844002030AA0000C5A60000E2
:200F3C00CBA6000038100020E0110020738A000088120020F81000204D990000D99F00006E
:200F5C007C1200209835002078120020D8350020F00E0020EB350020DFF800F059880110EC
:200F7C0038B504461948417808062ED5184D287870B1184A117859B9032008F0B5FC010003
:200F9C0023D091220A70102048708C70287818E00C2008F0A9FCC0B101210170FF214170FB
:200FBC0000F1080141600421426811701021426851700121426891704168CC700146064847
:200FDC000078BDE8344008F003BE31BD1C4E0020E5350020624F0020E435002040686430B3
:040FFC0009F09FBB9E
:20100000B41200001810000015AB0110FDB301106DC00110FDAE011099B5011000000000F7
:08102000000000002E0000009A
:20102800B01200003C100000B1C00110A9BF011067C0011069B80110000000000000000035
:041048003100000073
:20104C00B012000060100000BDC00110CDB30110D9BD01106DB3011000000000000000005B
:04106C00320000004E
:20107000000000001012002004000000000000000000000020000000E8C901103000000008
:2010900028100000181200200400000000000000000000000C000000D8CA011018000000E3
:2010B0004C1000002012002004000000000000000000000024000000F0CA01101800000067
:2010D00000000000281200200400000000000000000000001000000018CA01102C00000073
:2010F0000010000038120020040000000000000000000000200000006CCA011024000000D7
:20111000FFFFFFFF401200200400000000000000000000002800000090CA01102400000096
:20113000FFFFFFFF481200200400000000000000000000001400000008CB01101800000015
:20115000FFFFFFFF5012002004000000000000000000000058000000B4C9011034000000E3
:20117000FFFFFFFF581200200400000000000000000000001000000020CB011018000000B1
:20119000FFFFFFFF601200200400000000000000000000001C000000B4CA011024000000DE
:2011B000FFFFFFFF681200200400000000000000000000003800000044CA01102800000006
:2011D000FFFFFFFF701200200400000000000000000000005400000078C901103C0000007B
:0811F000010000007CBA0000C0
:0411F80001000000F2
:0411FC0000000E00E1
:0412000000000F00DB
:0412040032000000B4
:0412080001000000E1
:04120C006411002049
:0412100000020000D8
:0412140000000000D6
:0412180001C90110F7
:04121C0000000000CE
:0412200000000000CA
:0412240008000000BE
:0412280000002200A0
:04122C00001000208E
:0412300000000000BA
:0412340000000000B6
:0412380008000000AA
:04123C002411002059
:0412400000000000AA
:0412440000000000A6
:04124800080000009A
:04124C00000000009E
:04125000000000009A
:041254000000000096
:041258000000000092
:04125C00010000008D
:0412600098100020C2
:041264000600000080
:041268000100000081
:04126C006C0F0020E3
:04127000000000007A
:041274000000000076
:041278000002000070
:04127C00000000006E
:021280002A0042
:02128200010069
:02128400260042
:02128600310035
:02128800320032
:02128A002E0034
:02128C0001005F
:01128E00015E
:08129000030000000CBA00008D
:0812980000000000000000004E
:0412A0000000010049
:0412A4000000030043
:0412A80013C401105A
:0412AC00A7A10000F6
:0412B000B812000070
:0412B400B81200006C
:0412B8000000000032
:0412BC00C811002035
:0412C000D5A20000B3
:0412C4002000000006
:0412C80036B9000033
:0412CC000CB700005B
:0412D00029C101101F
:0412D40073A70000FC
:0412D80075A70000F6
:0412DC00A1C7011095
:0412E000A3C701108F
:0412E4000000000006
:0412E800ADB900009C
:0412EC0000B6000048
:0412F00018B600002C
:0412F400E8B5000059
:0212F8000200F2
:0212FA000900E9
:0212FC000100EF
:0212FE000000EE
:0113000001EB
:0413040075A20000CE
:04130800DD8C000078
:04130C00B99900008B
:041310008D8F0000BD
:041314002590000020
:041318003981000017
:04131C00056B00005D
:041320009FA4000086
:04132400217700002D
:041328009992000096
:04132C004D9E0000D2
:201330002DE9F04F8246DAF800600C465FEA0208ADF11C0D14BF00214FF0FF3106F1480040
:20135000834608F0B6FF002818BF0B2040F00D8100258848F460B8F1010F057007D06570FC
:20137000022007F0E9FE062007F0E6FE01E0012060702078012840F2AB80801E012868D964
:20139000801E012833D9801E012800F2DF8009F0B8F906904FF0805000F5EE77D0F8DC0104
:2013B000A378466A009321782846062908BF0120019001200290A068228AE1686368B0479E
:2013D00081460698FEF7D0FFB9F1000F40F0C080B8F1000F02D008F0EBFD02E0504607F0D2
:2013F00099FF002800F0A4803868806A2AE009F088F906904FF0805000F5EE77D0F8DC0157
:20141000012306680093A168A27860682478AC46042C08BF9C466346B04781460698FEF74B
:20143000A3FFB9F1000F40F09380B8F1000F02D008F0BEFD02E0504607F06CFF002877D078
:201450003868406880474A49C1F8B0510D6081467EE009F056F906904FF0805000F5EE7648
:20147000D0F8DC01E38A87690093E0680190208B0290A0780390207D049001210591227883
:201490002846022A08BF081CE1786268A368B84781460698FEF768FFB9F1000F58D1B8F13E
:2014B000000F02D008F084FD02E0504607F032FF00283DD03068006A80475FEA000947D1BA
:2014D0003068C569A168E28A2369E078A847BEE709F017F906904FF0805000F5EE76D0F87A
:2014F000DC01E38AC7680093E0680190208B0290A0780390207D294604900120059025781C
:2015100005B9014608466268A368E178B84781460698FEF729FFB9F1000F19D1B8F1000F5E
:2015300002D008F045FD02E0504607F0F3FE08B914201AE03068406980475FEA000907D10E
:20155000306802692169E078904780E74FF0FF39B8F1010F05D0022007F0A8FC062007F079
:20157000A5FC584609F0E3F8484607B0BDE8F08F50450240EA3500202DE9FE4F05467F4854
:20159000002400680094C0090ED37D48007858B97D497C4851F8112C104040F0817041F869
:2015B000110C202006F0D2FE012D40F0E280DFF80892D9F8DC00012840F0D8800220C9F886
:2015D000DC0008F0ABFA012006F0C0FE5FEA000805D00120C9F8DC0008F0B0FACBE009F083
:2015F000AAF8A34602906948694DC0F800B0A86A016801208847012804D1584605F0DEFC19
:20161000012000906348644FC0F800B03868112008F086FF00B10124102008F081FF08B1BE
:2016300044F002040F2008F07BFF08B144F004040B2008F075FF20B12868584E016B308808
:2016500088470A2008F06CFF20B12868544E016B308888475348012606602868816944F052
:20167000200088475048066008F054FF00F001010191400814D2286A81684C4888478246CA
:20169000BAF1040FF7D0BAF1010F04D1286A42684648032190474649086820F003000860E6
:2016B000584600F09BF92B683868986B8047019801280CD0BAF1010F04D1286A42683B480E
:2016D000314690473A49086840F0030008603148066028684169204688470B2008F020FF8E
:2016F00020B128682D4BC16A188888470A2008F017FF20B128682A4BC16A1888884729484E
:2017100006600322C9F8DC20274BC3F800B02868416B204688470128F9D13868042006F076
:2017300015FE0446194806603868144800688009FBD30098012802D1304605F03FFC08F088
:20175000DDFE082006F002FE07460298C9F8DC6009F062F91748008805F0AEFA08F0EEF9E5
:2017700057EA040018BF4FF0FF3804E06FF0040801E06FF001084046BDE8FE8F141009400A
:20179000280E0020FFFFFCFC150009400C400940B8010010000222432C2009407EB5000002
:2017B0007AB500002820086080010443004003402422084018B90000400D00202DE9F04FCE
:2017D000044678488E46016894461F46BEF1000FADF1440D4AD0BCF1000F47D09EF8002023
:2017F00001209040014241D0BCF80000B0F5C15F2FD1DCF81400DCF818606B4BDCF81C50F1
:20181000DFF8A8A10E904FF003080DF134090F9618681095C0F3036B59F8046FB6B100213E
:20183000331F05200A4653F8045FAA4506D0401E01F1040102F10102F5D107E0052A05DA58
:20185000705820F4702040EA0B407050B8F10108E2D1C4F804E0C4F808C008F052FF544D64
:201870008346287820B15846FEF77EFD002095E001F0CAFE4F49086840F0020008600AA86E
:2018900008F05AFD4FF0050905F1BC000AAA4A49CDF8309006F0D8FF0AA808F024FD002660
:2018B0004FF0FF0A05F1600019210AAB8DF83060424ACDF82CA006F011FF0AA808F03CFD70
:2018D00005F1F0000AAA3E49CDF8309006F0BCFF0AA808F008FD4FF00108CDF82CA005F123
:2018F0007C001A210AAB374A8DF8308006F0F6FE3549324605F19800134606F019FB33486A
:2019100008F0D8FD324A3346042105F14C0007F0F9FE4FF6FF70A5F86001AE702E716E7152
:20193000AE71EE712E726E722E61C5F81C902B7885F80180581C28705846FEF715FD1FB977
:2019500003AF384608F052FC386820607868E060387C84F811802074788A60821D4DA56118
:201970006561F86800B1A061B86800B160613146782204F1200005F00DF804F13800314629
:2019900007F0AAFD684608F074FE1349029404F1700032466B4606F0CBFA204611B0BDE87A
:2019B000F08FC046D4210840541300500200F844982A00200020094069A00000E198000093
:2019D000D15300009566000079A30000E54500005D7E0000876E0000D7A600002DE9F84FE8
:2019F000DFF8F4B10746ABF13500DFF8E0910068800880F0D98071480068006880477A4929
:201A10000831D1F8008000254FEA28725FEA985102F101020AD2C0F13E0110F10A0F4FEAF5
:201A3000E101D8BF08218A42B8BF0A1C644BD3F87C11C1F304611629A8BF20391B68C3F333
:201A50000443162BA8BF203B9A468918162905DA11F10A0FB8BF6FF0090100E01521594BD8
:201A7000594E01F01F0242F4F8521A80326812F0030F18BF0125D20828BF45F002050FB11B
:201A900045F004054A4692F90730C31A052B04DA9379AB4208BF918866D0DFF834E10F2889
:201AB000A0F10F0C25DB0CEB0013A3F1F00C4FEA2C26072E88BF07263446062C88BF06247F
:201AD0005EF82470042303EB84037446E358DB1B03F0FF04EF0824BFC3F307273C44AF089A
:201AF00024BFC3F307473C446F0828BF04EB136401E0002426465EF826E0EF080EF0FF03E7
:201B100024BFCEF307273B44AF0824BFCEF307473B446F0828BF03EB1E63A4B2ACEB062656
:201B3000AAEB01017443002904F1800403EB1423D8BF0121342408F0FF074C43A1B27943D3
:201B5000B1FBF3F14FF6FF738B4238BF191C802889B2918005DA10F1800FB8BF6FF07F007D
:201B700000E07F20D07195711A4800681F2910604FF0000008D340F2FF128A4206D24908BB
:201B9000401C8A42FBD301E01F219180134F0F39090940EAC10047EA0001CBF8FB1F002631
:201BB000CBF8FF6FBDE8F88F0D490E4F4A4608200F60921D1070BDE8F88FC046EC01001080
:201BD0003C1100506E62084024220840C43500209C130050082009403500094000E7A480A0
:201BF00030100940FDFDA400AC3F00502DE9F047784C04F108012046ADF1280D06F012F82B
:201C100004F11C050021284608F002FF4FF080400021E56005F096FC4FF0010A02276060F7
:201C300000258DF821A05146ADF816500DF121028DF8227040F2023002F0D8F840F20330C4
:201C500039460DF1160202F0D1F840F20530192104F1280202F0CAF804F114024FF44170B1
:201C7000082102F0C3F840F2063051460DF1220202F0BCF8584E10200622A023314601F08E
:201C90009DF810200722A023314601F097F810200822A023314601F091F810200922A02360
:201CB000314601F08BF84D4E707878B904F11000306107F093F802462846009001900290F4
:201CD00047490390B378102001F078F86068294632A30A4607F0AFFC1436A84608F094FE55
:201CF000A06841464FF040424FF0FF3308F088FE051CF3D0CDF8108005A808A904AA07F059
:201D100070F918B9049808B108F0C2FCE80FE5D3E06808F071FE0028E0D1E068054608F0AC
:201D300067FE854208BF454602D0856807F070F8002DEDD0288801282BD16168A878894680
:201D5000401E12D0401E0DD0401E09D0401E05D048463946424608F0A7FB1AE013A302E0CD
:201D700014A300E015A308460FE0316806A80160B188818006A805F0CDFF0346514642460E
:201D9000484607F058FC10A360683946424607F052FC284607F03CF8BAE7C046424C452060
:201DB00042726F6164636173746572004572726F7200C04657616974696E67004164766546
:201DD00072746973696E6700496E697469616C697A656400A0060020BD840110C809002074
:201DF000019A00002DE9F04F754C04F10C012046ADF12C0D05F016FF0026667006F06AFE7F
:201E100070494FF0010B4FF0040803204FF47A72A071096884F802B00720E671B2FBF1F154
:201E3000207289B204F10900079100F10B0900F1110A067000F13601089100F11701099144
:201E5000E068634A31464FF0FF3308F0D9FD071CF6D03046029006A902AA03A807F0C1F820
:201E700000287AD1BDF80C00102872D120789DF8181088426DD1029D2878D02869D1A978B4
:201E9000081C46D0801E22D0401E01283ED86D78002D56D1032917D0658995B1E3788BB1B4
:201EB0004C4808F05AFC10B14A4808F09DFD079845434848294608F093FD464808F08CFD8E
:201ED00000E0E670032000E0022060703BE06B78002B36D1EB7853B96078022814D03D48BD
:201EF00008F03BFC80B9584608F046FA0CE006F075FF024660793549009008983346019065
:201F1000102000F05BFF68706D78D5B9012E1AD01FE06B78ABB9ED1C286849460860AB88CA
:201F30008B8084F801B006F059FF02465B46099D2079264900901020019500F03FFFC0B27E
:201F500008B184F8018025691DB1296809B160788847029808B108F09BFB7808FFF470AFFA
:201F7000E07800283FF46CAFA079E7798DF80E0052468DF80F70116804AD29609188A980E6
:201F9000637A8DF81730207A8DF8160006F026FF0D4902460DF10E03102000F00FFF002835
:201FB0003FF44EAF206984F8018000283FF448AF016800293FF444AF4046884740E7C046CF
:201FD000C809002078BA0000594401100945011001000080280A00202DE9F0411C461546EA
:201FF0008C4208BF854282BF00230022E5E0002C08BF002D0AD100290EBF00286FF00000B2
:202010006FF0000100F0E1F8BDE8F0815FF000085FF0000E002C08BF8D429CBF2C1C002533
:20203000070C47EA01470E0CB44208BFBD429EBF5FEA044444EA15445FEA0545070A47EAE4
:2020500001670E0AB44208BFBD429EBF5FEA042444EA15645FEA0525470847EAC1774E083E
:20207000B44208BFBD4200F29380870847EA81778E08B44208BFBD427CD8C70847EA417779
:20209000CE08B44208BFBD4266D8070947EA01770E09B44208BFBD4250D8470947EAC16703
:2020B0004E09B44208BFBD423AD8870947EA81678E09B44208BFBD4224D8C70947EA41674A
:2020D000CE09B44208BFBD420DD8E60146EA5566EF01B14208BFB84201D3C01BB14158EB1E
:2020F00008085EEB0E0EA60146EA95664FEA8517B14208BFB84201D3C01BB14158EB08080C
:202110004EEB0E0E660146EAD5666F01B14208BFB84201D3C01BB14158EB08084EEB0E0E1B
:20213000260146EA15762F01B14208BFB84201D3C01BB14158EB08085EEB0E0EE60046EA5A
:202150005576EF00B14208BFB84201D3C01BB14158EB08084EEB0E0EA60046EA9576AF0028
:20217000B14208BFB84201D3C01BB14158EB08084EEB0E0E660046EAD5766F00B14208BF48
:20219000B84201D3C01BB14158EB08085EEB0E0EA14208BFA84201D3401BA14158EB0808E4
:2021B0005EEB0E0EA34208BFAA423EBF2D0A45EA0465240A89D3734642461E4617460B4669
:2021D000024631463846BDE8F08170472DE9F04F6C4CE2680746880FADF1140DC0F0CF80EC
:2021F0005068406808B18047E2685168664E886808B9CD6875B13568002DFCD000223260E2
:2022100010B18047E0684168C86800B180475F4807F064FA4FF00008C6F800805C4846F82A
:202230001C0C5C4808F046F940F60A09A4F82490A378A4F82680BD6894F83000C34604F1B6
:20225000240A00F0F00084F83000012BC4F828B094F83100A5F8028000F0F00040F0010007
:2022700084F8310001D17B7CABB1B8680088A9F10801814208D0B0F5C15F05D0298B4FF603
:202290000F400840288304E0298A4FF60F400840288287F811804048016883680193C36824
:2022B000406B00911022694620F0784040F0805003903A48029303F0FFFB494600E01D46C0
:2022D0006B6813B118888142F9D1C5F804A0687B00F0F000687304F1380008F024FA806800
:2022F0000088A9F10701814220D0491C81421DD03B8CEBB197F82C0097F82D30C7F824B03F
:2023100000F0F00087F82C0003F0F00040F0010087F82D0007F12002A2629AF80D00A7F806
:20233000228000F0F0008AF80D0001E0C4F8108030680028FCD0C6F80080B968237A0A8A33
:202350004FF6FF301040088283B91548006801680120884701280FD0687B00F0F00040F0CA
:20237000010068730F4808F0A5F805E006F016F90028FBD008F0D5F9B86846F81C0C05B0A7
:20239000BDE8F08F982A00201C1004400100070601010E043D0000004C1300501800002170
:2023B000E0010010957400002DE9FE4F674D664C674F2868626A066904F120033946012011
:2023D000B04710B1286880688047DFF88881DFF8889107F0FBF95FEA000B03D003F07CFDA8
:2023F0004FF0FF3B002637E00098616910F8062CA0F10C07032A02D171B388472CE0A06ACE
:202410009DF805C005213246401E10F8013F9C4506D0491E02F10102F7D14FF0FF0A01E009
:202430005FFA82FA2868BAF1FF0F00F1080011D0387906F0DBFBB979012904D0022904BFF9
:202450000099887001E0009908700099504607F0C5FB01E0006880472868C3690DF1050133
:202470006A4601A898470028BED0D9F8000030F8167027B9761CF6B2052EF8DB23E0052E89
:2024900021DAD8F808008047D9F800107700002231F807A0CA53D8F80C1088472F4850F8B1
:2024B000262066705146304690470646FF206070D8F808008047D9F800107A5A16437E5254
:2024D000D8F80C10884707F081F90746BB451AD007B9234FE069B84238BF071CD8F8080022
:2024F000804782462868016A206A8847626A286817491C4B521C6262C6683846B047D8F821
:202510000C1050468847E7682968A06814318FB9D9F8000005270026835B33B10969A06856
:2025300088472968D9F8000014317F1E06F10206F2D103E0096988472968143109684FF00C
:20255000FF30884745E7C046F810002088120020358C0000540E0020D835002088B90000A8
:202570008EC2F528181100202DE9F04FADF1240D079001F049F86148007807F073F9604D77
:202590000024012808D90A380FD0801E04D0401E0ED0401E09D006E007F09EFC022804BF93
:2025B00001210C1C06D0696805E005211F2401E0032107246960534A1068C0F38150012811
:2025D00006D152F80C0C0127020E07FA02F0044307F0AAFE524AFF230818401E471C28607A
:2025F0007F1E02F8013BFBD1079A1268002702F0FF03FE2B20D0DDF81CC096463B460126A8
:202610000EF0FF02FF2A10D0904205D3914203D806FA02F2144201D002206CE017430EF069
:20263000FF02DFF8FCE00EF802305CF804EF5B1C0EF0FF02FE2AE5D1092002F0AFFC07989E
:202650000121A86005F1280006F046FF05F19806A8464FF0010A4FF0040B0025A9460AFAB5
:2026700005F0044216D1074204BF05F0FF0141F4C04104D02A480799405D51F8201022488B
:2026900002F078F9E8B24FF0FF3107F03DFBC6F8009001E0C6F800B0D8F800006D1C361D46
:2026B0008542DCD904A807F01EFE184C184A2078102104AB059008F10C0006F00FF868464C
:2026D00007F03AFECDF80C906A4660681149029008F1640006F0B8F80F4951F80D0C20F425
:2026F000F85040F4005041F80D0C0C4FC1F8FFAF4846C7F800A009B0BDE8F08FE9350020E2
:202710002C0C0020B43F0050007FC76720BA0000359D00006D8500000D30094008000940EC
:20273000700C00202DE9F84F694CE76B07F0E0FB6A4D002F4ED081081BD207F110020CCA5D
:20275000002102400B4008BF002A43D03A693E6A10403043386207F1180696E80C002764E4
:20277000194307F11806104386E803004FF480412CE039693E6A07F1180341F0020108402A
:202790003043386293E800030022002607F1180340EA080046EA090183E803003E69E2637D
:2027B0002B46A3F1100000F108031968B14307F11006196096E8000301684B469943016044
:2027D000394604F1440005F01FFC022104F1BC0007F0B5FFAB46002601254FF002094FF0DC
:2027F000110AA846F0B207F013FC071C30D0B87C01282DD1ABF11400797C0368113105FA49
:2028100001F223EA02010160797C4268113105FA01F111434160787C08FA00F0C0B207F02E
:20283000F1FAF868002106F0AFFE812808BF87F8129081280CD0787C94F862110AFA00F07C
:20285000084384F86201002104F1F00007F077FF761C032EC6D3204807F065FF0746E06B14
:20287000002832D167B3684605F00EF930B1009820B1082004F04CF8BDE8F88F082007F064
:20289000C1FA14493869A1F10802136807F110061843106096E80C0051F8102C181C1043E9
:2028B00041F8100C00250D60B86841F81C0C0F68002FFCD0084807F03FFBE063BDE8F88F3E
:2028D00004F1BC00494607F03AFFBDE8F88FC046982A00201C100440D02A00201C1004406A
:2028F0002DE9FC4F83F0004301E02DE9FC4F1F03FF0847EAD2574FEA42284FEA43095FEA7B
:20291000595906D147EA080A1CBF00210020BDE8FC8F57F000575FF4E06E1EF1FF0EF145FE
:2029300005D14FF00000190D0905BDE8FC8F002B05D55FF0000AD8F100086AEB07070C036D
:20295000E40844EAD0544FEA40254FEA4106760D08D144EA050A19BF00210020191C101CF8
:20297000BDE8FC8F44F00054764504D10020090D0905BDE8FC8F002904D55FF0000A6D4281
:202990006AEB0404B6EB090E08D5A2463C465746AA464546D046CEF1000E4E46BEF1360F48
:2029B0005CBF4FF0000B23E0BEF1000F04BF4FF0000B1AE0CEF1390ABAF120092EBF08FA15
:2029D00009FB07FA0AFB4BEA080BDEF1200A07FA0AFA38BFBA4647FA0EF72DBF28FA0EF846
:2029F000AEF1200E4AFA0EF8D04415EB08057C4154EA050A02BF00210020BDE8FC8F002C27
:202A100058BF4FF0000A06D55FF0010A5FF0000E6D426EEB0404A6F101066D006441FAD525
:202A300015F4806E11D005F480794BEA090B15F5806554F1000428BF761C0BD205F4007973
:202A50005BEA090B08BF25F4006525F4E0656D0044EB0404B61CDEBF00210020BDE8FC8FE6
:202A70005FF4E06E1EF1FF0E76450AD34FF0000013F00043FF21C900C91D09051943BDE88E
:202A9000FC8F270547EA1530210B41EA065141EACA71BDE8FC8F70472DE9F04F8346ADF142
:202AB000140D0393BBF1000F02920E9801910F9C049000F0AC80081C00F0A980101C00F014
:202AD000A680181C00F0A3800498002800F09F80002C00F0A180206A002800F09880524D10
:202AF000676A281D0068002F00F09180A16A07F06FFF40B2002808BF6FF0020700F083806C
:202B100084F82C002078618800EB80000918143188B2216A88474349086030B92846406824
:202B300007F052FF4FF0FF376DE08A46628823786088DAF8001026789F1800EB0109781882
:202B500000F1040806EB460002EB430786187F18C01876188018401800F11005204605F00E
:202B70000BFA2078C01C8010C9F800002078C01C8010C8F8000020780837C01C80103860DC
:202B900020780C36C01C801030602078C01C801028602278594609F1040002F08DFF227874
:202BB000019908F1040002F087FF22780299381D02F082FF0095484641463A46334607F05F
:202BD000FFFE47B222780398331D194602F074FF22780498291D02F06FFF21786288DAF875
:202BF000000001EB81015218002103F0D3FE616ADAF8000088470C48406807F0E5FEF8B21C
:202C1000992808BF002784F82C70384606E01CB16FF0010084F82C006FF0010005B0BDE8EA
:202C3000F08FC046884F0020F81100202DE9F843614C5A4D5A4EDFF870815E4F94F8E4109D
:202C50000846401E0B2864D8DFE800F07B2C43062343062343067664042907D001220A2996
:202C700045F8212C14BF0220032004E0202045F8210C0120024684F8E200002045F8390CAB
:202C90000827C5F8FF7FC5F8F37F45F8392CBDE8F883052914BF09200620002784F8E400F2
:202CB000376075E094F8E170383D0120002FC5F81B0004BF0620002102D00021F16003202D
:202CD00084F8E400032045F8010C3160306880085ED294F8E4103348012703290ED00068A1
:202CF000456800216022052300914046A84794F8E400062814BF0A200720CFE700684568B9
:202D1000002160220523022000904046A8470420C4E7FEE72548264F0026012506600E203B
:202D30003D6002F025F8022006F0C0F884F8E45084F8E360BDE8F883002038600C257860B7
:202D500024E04FF08059D9F8A0010168202088472C3D0F2045F8010C41F61D56C5F80360B1
:202D7000D9F8A401466800214FF4C0720723022540460095B047D9F8A401C66800214FF41E
:202D9000C07207234046B0470120386084F8E45004F1780007F0AFFCBDE8F88339400C40ED
:202DB00038600C40A401001000A00C402C500C4004800C4034600C40400D00200FB42DE9C0
:202DD000F04106AF8046ADF1280D07F0F7FB3E1D26F00306361D30F0010001D107F083F948
:202DF000CDF81A601420ADF816000025CDF80E50FF248DF818407B68CDF81E3007F0DCFD87
:202E1000064607F0DBFB30F0010015D007F024F84D492A468446062031F80C7F4FB14B6813
:202E30001B689E4204D0401E02F10102F4D100E0D4B2604607F062F9404606F003F8014616
:202E5000FF2905D0204603220DF11A0304F058FA07F0B2FD06F0E8FAA8460446CDF800807E
:202E700007F0ACFB30F0010063D00098A04260D041F2883001A906F017F9009D002852D123
:202E900007F0C2FD0199012746186068019B41464FF0005207F0B4FD00282BD00DF12200E5
:202EB0000DF1230102AA04F01DFBB0B99DF8220003A906F011F938B9029A07F061FB002854
:202ED0001CBF029D474615D10299684606F095FA60684FF0005107F06BFD0198B0F1FF3FF8
:202EF000D3D00028D1D007F08FFD301A02D00199814216D206F0D0FE009E06F0ADFF083432
:202F100001463EB1324652F80C0C40B9206842F80C0C2660084607F0F1F8384603E0024661
:202F3000F1E70190B1E720B92DB1284607F0B0FB01E007F0D8F8DDF81A0000680AB0BDE85B
:202F5000F04104B07047C0469C0E00207CB5524A524813785249002B71D05B1E032B08D974
:202F7000083B012B4ED99B1E012B69D99B1E6ED089E04C494C4C4D4B4D4A0B604FF4A05327
:202F900065880580022D38D94FF48066AD1B1AD02D1F012D20D94FF47F76AD1B1ED04FF4F0
:202FB0004066AD1B0FD0AD1E012D0CD92D1F0AD06D1E012D10D940F2F936AD1B012D1CD9C2
:202FD0002D1F0BD05FE003800A600121394A1078BDE87C4001F00EBE374AF5E7374D2868D2
:202FF000067A012E05D141F20240608060836086EAE7638063836386E6E7002006F0CAFEF0
:20301000832044E04A88028040F2044082421CBF41F2084082423ED041F60400824211D142
:20303000274C284A2568284800680023CDE9002355F8086F254B0222B0472549088073BDC5
:2030500049880180002006F0A5FE85201FE04A880280022A0DD940F20440121A1BD040F688
:20307000FC70121A05D0083A15D04FF47F70121AE8D1887B801CC0B2B528A8BF66208873BF
:203090000020488073BD002006F084FE8420BDE8764007F089BC73BD6F4F0020504F002068
:2030B000CC4C0020204F0020204A0020D1A60000615A01106E4F0020755B0110104F00202F
:2030D000F04E002002000080EC4E00206D950000424F00202DE9FF4104466668A7680D4623
:2030F00007F00FFB3178012903D1FDF73DF900208FE001213170FDF737F928787070687818
:20311000B07068687060A868B060E868F06028693061287D3075687D7075A87DB075A8698E
:20313000B061287F3077687F7077A87FB0774FF00008C6F82080C6F83080454675627563B7
:20315000B562B56386F82C50102386F83C3086F82D5086F83D50786801F020FF204602F0CB
:2031700029F8204602F042FD60B9386806F0C6FC786801F0FDFD07F0C4FA3570FDF7F4F811
:203190002C4645E0684607F0AEF80094387B224A0190B9686B4606F1800005F09FFA684674
:2031B00007F0CAF800941D4938696A46029006F19C0005F049FBB07830B906F1D000294656
:2031D00006F08AF916483061707830B906F1EC00294606F081F91348F060684607F049FA51
:2031F00001958DF800501049029406F584700A226B4604F09DFEB969FA6906F1400007F057
:203210004FF80A4A06F16C000421234606F07AFA20460090BDE8FF81E93C0000AD8A000031
:203230007BA6000073A600005D63000029A400002DE9FE4305466C68AF680E4607F061FA84
:20325000217809B1617811B1FDF78EF88FE04FF0010884F80180FDF787F83269F968474844
:2032700001EB42010068497806F020F93069F968FE2311F81000019340F000406946009060
:2032900004F1840002F066FCC4F89000D4F8900048B12779317C617157B939490968012964
:2032B00004D006F0DBFC0020607060E084F80480C4F880606F6828463146424604F084FADB
:2032D000387C012803D12846002204F07DFAD7F894104968802009682A4B886206271F60F2
:2032F000D5F808906F6842462846314604F04AFC387C012804D128463146002204F042FCF0
:20331000D7F894104968D9F8040009688862D7F89810496809684046C86606F0F5FFA078FA
:2033300008B905F0F1FEE07928B9A079217A102201F07CFD03E0A079102102F02FFAD4F83A
:20335000980004F037FD022005F0F6FE607C90B9D4F89C1004F16406304606F0AAFF50B180
:20337000284605F025FE3046002106F0A2FF4FF0FF30BDE8FE830020BDE8FE838C00001013
:2033900008800C4014500C402DE9F04706467468D6F808800D46ADF1180D07F0B2F90746C9
:2033B0002078012804D13846FCF7DEFF002082E04FF001094FF0805A84F80090DAF8A001B6
:2033D000016810208847DAF8A0010168802088473846FCF7C9FF287A30B904F164000021EC
:2033F00006F07AF8354800E0E868E060002767702868C4F89C006868C4F8A000287A6074E0
:20341000287CE77027712074686928B9A771E77103202072484609E0007820726869807854
:20343000A07168694078E0716869C078A07002A806F059FF98F808000296302102AB204AE8
:20345000039004F1140005F049F902A806F074FFD8F80000029602AA1A49049004F1300046
:2034700005F0F2F902A807F031F8322504208DF80C7002A98DF8080098F81000ADF80A503F
:2034900001F018FCD4F8A050C4F89800684607F02CF90199D4F89800B1FBF5F1491E07F04F
:2034B000D4F8D4F89800494606F0CAF904F002F9C4F89400304606B0BDE8F087F90F0000F5
:2034D00069870000757300007CB54E4D044668680E4628B94FF00040002104F033F8686062
:2034F000002127A30A4606F0A6F8204628A3801E04D0801E37D0401E22D00EE06868012E68
:2035100005D000210A4606F096F824A331E000210A4606F090F826A32BE0686800210A46F5
:2035300006F089F868680221002227A306F083F801208DF801009DF801000028FBD17CBD4A
:20355000686800210A4606F076F868680221002223A306F070F801208DF800009DF8000042
:203570000028FBD17CBD686800210A4606F063F81FA368680221002206F05DF87CBDC0461B
:203590003E3E3E535441434B20415353455254002A2A2A4552524F522A2A2A003E3E20498E
:2035B0004E5445524E414C204552524F522100C03E3E20494E5445524E414C204657204541
:2035D00052524F522100C0463E3E2044454641554C54205350494E4C4F434B2100C046C064
:2035F0003E3E204943414C4C2041424F525421003E3E204F5554204F46204D454D4F5259BF
:203610002100C046A00600202DE9FF47484C94F8E700002876D13D4801273D4D006884F8C0
:20363000E770EE7C84F8E6606B68C4F81031C0F3801084F8E800684607F01BF8002604F1AD
:203650000C0001966B468DF8006032490296324604F06EFC304904F130006B46324604F07D
:2036700067FC2E4904F154006B468146324604F05FFCA96838468847DFF8B08028482A7D5C
:2036900008F104030078284D1868C0F3815A22B1BAF1030F04D184F8E170BAF1030F17D049
:2036B000BAF1020F14D0BAF1010F0ED0022005F043FD1C480068016804208847012804D045
:2036D00028683221B1FBF0F10DE005F017F912E0022005F031FDBAF1030F0CBF4FF47A718B
:2036F00042F210712868B1FBF0F1484607F001F8484607F000F840460068C00802D23046ED
:2037100005F01AFD00200090BDE8FF871410094008B900005375000069560000A96D0000E7
:20373000E9350020E0010010D4350020B03F0050400D00202DE9F84F5FEA00091C4692468C
:2037500000917DD0081C7BD0BAF1000F78D0002C7BD0206A002873D03F4D616A281D00689A
:2037700000296DD0A16A07F033F940B2002808BF6FF002055FD084F82C002078618800EB1B
:20379000400009180C3188B2216A88473149AB46086030B9DBF8040007F016F94FF0FF35DB
:2037B00049E08846668865882178D8F800008F192D183F1806EB41063618204604F0DCFBC3
:2037D0002078C01C8010286020783F1DC01C8010386020780836C01C80103060227849465A
:2037F000281D02F069F928463A463346014607F0D7F845B2227800983B1D194602F05CF985
:2038100022785046311D02F057F921786288D8F8000001EB41015218002103F0BBF8616A5B
:20383000D8F800008847DBF8040007F0CDF8E8B2992808BF002584F82C502846BDE8F88F6D
:203850001CB16FF0010084F82C006FF00100BDE8F88FC046884F0020F81100202DE9F0418A
:203870000746FF2F1ED106F07FFE10F0070F16D0042005F067F908B104200AE0012005F009
:2038900061F908B1012004E0022005F05BF920B10220BDE8F04105F071B906F07BFA002022
:2038B000BDE8F08105F06AF98046012FD8F80450334E04D0022F29D0042F3DD0EFE70220B9
:2038D00005F040F980B1022005F058F9074601207C6805F037F928B1A0683118A86807F069
:2038F0005BF888B13846DBE7042005F02BF928B1042005F043F90746012026E0012005F0F7
:2039100021F908B94FF000084046C9E7042005F019F928B1042005F031F90746022014E095
:20393000012005F00FF928B1012005F027F9074602200AE00220E2E7012005F003F988B1BB
:20395000012005F01BF9074604207C6805F0FAF80028C7D0A0683118A86807F01DF800289D
:20397000C0D1D1E7022005F0EDF830B1022005F005F9074604207C68E8E70420BFE700BF4F
:20399000589EFFFF2DE9FC4705466E68D5F80880B76B002F18BF4FF0FF307BD131630024BA
:2039B000F477171C74631BD006F1400906F0A9FE82466946484604F0B0FE00281ED4504663
:2039D000FCF7D2FC9DF80000316B0870306B736B7F1E00F10100306303F101007063E5D154
:2039F0007078726B316B0128A1EB0201316303D1F36828469847726B14464AE0B76350467D
:203A1000FCF7B2FC06F07DFE244D0746287820B9022005F091FB012028703846FCF7A4FCE0
:203A30001D49086840F400700860D8F80010886B40F4FA608863707808BB716806F1EC07DA
:203A5000384606F036FCB8B1B4633846214606F030FC88B106F055FE0746287818B10220CF
:203A700005F024FA2C703846FCF77EFC1027716B306BF777401A3063706BBDE8FC8796F802
:203A90002D0030B1706B20B1B46306F19C0006F058FE2046BDE8FC8730100040E235002021
:203AB00070B50C46E00788B00BD506F055FC28B1002181603448006800B1804784F001008D
:203AD00060E0E00413D53148C11D0D3006F060FF2F4842682F4800784FF4805104F058FC75
:203AF00010B18E20FDF742FA84F480504AE0A00505D506F0FDFC284901200860FEE76105F2
:203B100004D502F0F6FF84F480603BE0600405D58120FDF72BFA84F4804033E0A00430D576
:203B30001E4D286810B1002006F034F94FF0FF30286006F029FF1A4D296851F8202F684624
:203B500090471848016A426A2D68009101921649029100F128014A6809781368C0690393D5
:203B70008DF81010ADF812006B462E680F4A10491048B0471049086000F0B6FC84F4005066
:203B900000E0002008B070BD204F0020AC450020784E00206E4F0020FC002043044F0020FB
:203BB000F04E00203810002059A300002C4D00206845002088490020EC4E00202DE9FE432B
:203BD00004F0F8FFDFF80C81814608F1020000880027011F8CB26FF00301401880B204289E
:203BF0005ADBFF254FF6FF7620466946042205F02BFABDF800309E4237D0002B35D0D80B6E
:203C1000C2032FD19D422DD0381FDDB280B2042815DBB0F5805F12DA00F18852126801A960
:203C30000A60BDF804108D4207D0BDF80610401A001F80B20428ECDA01E0012300E000232B
:203C5000BDF802001BBB211A001D8BB282B207F18851184605F0F8F9BDF80200C119091D32
:203C70008FB214E0BDF8020011E0BDF8020003466FF30E0363B9011D8C4208DA002006F0E4
:203C900089F8484606F078F80020BDE8FE83241A241FA4B2042CA7DA04F036FB3FB10C4868
:203CB0004FF088513A4606F0AAFC06F085FB484606F062F84246507800281CBF0020011CDC
:203CD00003D1C7F58054391DA0B25180BDE8FE8304E001007C1200202DE9F8438146D9F855
:203CF00008703868066CD9F8045046646A6CAB6CA86B16F4F06F0146A2EB03082ED1F0091B
:203D100019D2700961D389B195F83C40641EA14298BF0C1C4846214605F02AFBA86B001B97
:203D3000A86352D105F19C0006F00BFD4846414605F060FD49E00029F8D0484605F018FB9E
:203D500095F82D10A86311B900283ED101E00020A86305F19C0006F0F4FC36E0F20A19D2FC
:203D70004FF00008444602E0A86B401EA86340B34846012105F0FCFA3868446814F00F0413
:203D9000C0F80480F0D0286B401E2863686B401E686316E0386844680022202904F00F04EB
:203DB0004260CCBF20270F1C4846394605F0E0FAC7F12007B845C8BFB8464846414605F00D
:203DD00019FDEC77484603F099F9B0090BD3A96A49B10F46484605F0F9FAA86218B948466F
:203DF000391D03F0BFFFBDE8F8837047FEB5404E0C461746A0F20231082906D8DFE801F059
:203E10002F295E4D211A75130CC028286DDA022C6BD136493B8864E0012C66D13878042839
:203E300063DA093613E0012C5FD1387808285CDA08360CE0012C58D13878042855DAF61DF2
:203E500005E0012C51D1387804284EDCB61D3070FEBD022C49D138880A363080FEBD012C0A
:203E700043D1F1783878F07051B900283DD07078012818BF032838D1012006F07DFAFEBD01
:203E9000387890BB707802282FD104F0A7FF194902461020FEF792FFFEBD06F13F050021F4
:203EB0001F22284602F076FD39462246284601F003FE747104F092FF00230FE006F12005FF
:203ED00000211F22284602F065FD39462246284601F0F2FD347104F081FF01230094064959
:203EF000019502461020FEF769FFFEBDBD840110C809002099450110094501102DE9F047AE
:203F100016460868346802781D46662A00F10100086060D1288B40B9E41D24F00704083429
:203F3000A4F1080090E8000309E0E41C24F00304241D54F8040C04F0ADFE894680462CA2B6
:203F50000CCA4946404602F0E1FB28BF002705D2286989F000490127401E286126A20CCAB3
:203F70004946404602F015FC31D3404604F0B8F8824605F014FA0B46024649464046FEF77D
:203F9000AFFC1FA20CCA00F0BBF904F023FA0146686904220A2302F037FF401EE8612E2191
:203FB00001706B692A69E86951461B1AEB60D21A0A2302F029FF002F08BFE86104D0401E0D
:203FD000E8612D210170E8696969081A06E006A0E861072002E0E86902700120E8603460E6
:203FF0000020BDE8F087C046286572726F72290000000000000000000000C0FFFFFFDF4117
:20401000000000000088C3402DE9F0413C4C243C04F14408404606F086FB071C6DD0B86818
:2040300040F603022026531C02E04068761EF6B260B15EB101888A4218BF8B42F5D1F9687A
:204050002CC820312CC149C881E849003A6A00253D627868D0B197F8270042F00202002383
:2040700000F00700401E09D0401E04D0801E08D14FF0805304E04FF0804301E04FF00053EE
:204090002A467E68F868B7F92410B04706F039FB0646B4F94A00401C6FF31F30A4F84A001F
:2040B000606C80F82750404605F046FF3046FCF75BF9F868B0F99410B4F94A2091421CD134
:2040D00090F89670A7B9076897B1E2680D4912680968B2F1FF3F10D0B7FBF1F2012A8CBFD4
:2040F000B7FBF1F10121703006F05EF9BDE8F08180F89650082002F00BFCBDE8F081C0465C
:20411000BC2A0020D43500202DE9FE4F8A4606460CAF97E80300984691460746019106F01A
:20413000F0FA374D8346082005F5B47494F8273033F07F0357D106F1700006F0DEFAB5F95B
:204150004800401C6FF31F30A5F84800C4F808A0019A84F82690294BC4F80480B5F848003B
:204170002021114004F11002A08403EA07000027E660B84604F1180382E8030021466A467F
:2041900084F8277005F1380083E8800103F03CFF00282CD096F89630A08C012BA6F89400B2
:2041B00004BF86F896706F709DF8006094F8270040F0800084F827003EB1A87928B1E87885
:2041D00018B10120E871AF716F705846FCF7CCF89DF8000018B1E86B08B903F0FDFBB4F92E
:2041F0002400BDE8FE8F401E04F128049ED15846FCF7BAF86FF00100BDE8FE8FF1EFFF9F18
:20421000982A00202DE9F04707467D68D7F8089090460E4606F075FA8246A86A002864D100
:2042300005F5847006F069FA0024EC772E6250466C62FCF799F806F064FA2F4E33788246E4
:2042500023B9022004F078FF012030705046FCF78BF82A49086840F48070086038464146A4
:2042700005F0B4F8A862C0B93846414603F07AFDA878D0B9A96805F1D00006F01AF8E8B17A
:20429000AC621020E8774946284602F0BCFB06F038FA8246307840B323E0D9F80010886B69
:2042B00040F020008863A87810B12046BDE8F087A96805F1D00005F0FCFF10B9686ABDE849
:2042D000F0873846414603F04DFD1020AC624946E877284602F097FB06F013FA8246307884
:2042F00018B1022004F0E2FD34705046FCF73CF84FF0FF30BDE8F087E3350020301000404D
:204310002DE9FC4191EA03084CBF4FF000484FF000084FEAC32545EA52554FEAC2264FEA8A
:2043300043077F0D11BF45F0004500210020BDE8FC815FF4E06E1EF1FF0E774555D04FEA13
:20435000C12343EA50534FEAC0224FEA4104640D11BF43F0004300210020BDE8FC8174452D
:2043700043D0E419A3FB0501A3FB06E7A2FB06631EEB030E57F1000751F10001A2FB056337
:204390001EEB060E57F1000751F10001FF1851F10001C01951F100014CBF4FF4806E4FF469
:2043B000007E10EB0E0051F1000148BF641C01D4400049415FF44077FF37E41BDEBF002100
:2043D0000020BDE8FC8117F58067BC420DD24FEAD02040EA41504FEA41014FEA113141EAB6
:2043F000045141EA0801BDE8FC810020FF21C900C91D090551EA0801BDE8FC812DE9F8434E
:204410009946904604460E1C44BF0020011C67D406F091F905468021304604F0BDFE071C34
:2044300004D097F8270030F07F0003D1284606F0F3FA53E097F8270010F0070F46D10020E8
:20445000022107F1180640EA090941EA080896E8030008EA000019EA010608BF002820D040
:20447000284606F0D9FA07F1180003C804F1680604F1680508EA000809EA010986E80003ED
:2044900095E80C0007F1180696E8030007F118059943904385E80300683494E80300BDE8F8
:2044B000F88310487968884202D079682166786004F1580080E80003284606F0ADFA04F1A4
:2044D00038004FF0FF3105F0F4FEE5E7284606F0A3FA97F8270010F0070FFAD10220002197
:2044F000BDE8F8837D77000038B52B4C2B4B2568186855F8183F00224FF0FF31984728482D
:20451000284A416B88684179117006F039FA264806F032FA06F02CFA2448026800215171B4
:20453000A02301680722CB804A720321026811720021036859770268D176036883F85C109F
:20455000012102681177036883F85D100021006880F85E1004F0B4F906F006FA1449154A22
:204570000020087010801B20134A10804FF4A471124A1180FB20124A1249108040F64800B6
:204590000880FB21104A1180104A108006F0E8F90F490020087032BDF04E0020EC4E002024
:2045B0008CBA0000714F0020CC470020104F0020794F0020524F0020444F0020464F002002
:2045D000484F00204A4F00204C4F00204E4F00206F4F0020B0B5324C0D46A80842D2E8081B
:2045F0005DD301250420657204F0A6FD2D480068006B8047206104F1380006F094F800285C
:204610000EBFE068C068E0604068274900780860022004F091FD112000F0C0FCE1682571B5
:20463000087C10B1A078012803D00E2000F0B6FCE16849681D488F680FB9CF681FB10021FB
:20465000C1611B4F07601B4A40F2FF7111600027876119494161194805F02CFF192006F01C
:2046700052F8B0BDFFF7D0FC04F1440006F05BF825F0020504F1380158B9E80803D20846C1
:2046900006F051F858B104F1980006F036F8042101E045F0020104F1BC0006F050F8B0BD77
:2046B000982A00208C010010D021084000100440510007060000046002000040DD210000DC
:2046D000F8B505F015FF02F0E5FC05F023FF054605F00C000C2854D0E80826D204F080FF2B
:2046F0002A4E376804460120014605F0C6FA31686143884219D22649F020B0FBF7F0241AEB
:20471000887C18B1C868A04238BF041C214D2146284606F065F9284606F05EF90120FCF72D
:204730002BFF284606F060F92DE0280929D21A4CA4F1200620688168184888470746042F08
:20475000F8D01748690905D227B101460A6822F0010203E001460A6842F001020A6098312F
:204770000A6842F003020A6030688169202088470C4C37682068B86B8047012020602068F3
:2047900001E005F0AEFF05F0B9FEF8BD78BA000008B900004C0D0020D8010010004003404D
:2047B0008C2108402C2009402DE9F84F364E0446B0688047354D05F10802116809191160C7
:2047D000F1688847286800285BD0A9464FF0000807463546C246A868804756461FFAA4F395
:2047F000834683B95FFA94F36BB93979E0B2884204DD79682046884209D20AE03879E1B297
:20481000401A387108E079682046884201D3314601E07968091A7960B88878B9FB8853B983
:20483000FB6843B13B8933B1B87A194600F0E2F9F8687860B88808B9FB880BB13B896BB9AD
:20485000B8F1000F04BF3868C9F8000003D03868C8F8000038683E46074601E0B8463F6842
:20487000E9685846884756B1B08828B9F08818B9B07A318900F0BEF9304605F08DFD002F52
:20489000A9D1BDE8F88FC046540E00209835002033480178002900D17047F0B5491E032910
:2048B00085B054D82F4C2168086800F10805062205F1080102A805F09FFB0622A91C68461A
:2048D00005F09AFB287800F00F010329C0F3801543D16179C009C1F38001884232D12169E7
:2048F000062202A805F05AF960B36946284606F033F838B31C4D2946684606F029F8FF288E
:2049100020D01D2148431949194F0968897A2E18002918BF02290AD0012918BF032911D136
:204930002A5C711C384606F00FF810280AD06B46F21D3146384606F003F806226946F01D3D
:2049500005F05AFB21680A680020107105E0002005F020FA862006F027F805B0F0BD00BF71
:204970006F4F0020F44B0020AC450020104F0020CC4700202DE9F0470D4606465FFA85FA63
:20499000280824BF2E4845402E494FEA8A03C85885EA00023240C2F300672B4A06EA05042F
:2049B000B043224006F4E0240243B4F5E02F01D1500E14D306F4E020074310D002F4E0275F
:2049D000B7F5A02707D0B7F5803704BF22F4003242F4A02203E022F4803242F4C022DFF87D
:2049F0006C80CA5008F1D00739680122002002FA0AF40C4218BF101C5FEA000906D1F00D7C
:204A100004D34146C5F3805001F80A00300E0BD305F077FE290E34BF0021211C3A68A24308
:204A300011433960FBF7A0FCB9F1000F06D0F00D04D34046C5F3805100F80A10BDE8F0874B
:204A5000006000A000100840007F077F002002402DE9F043DFF8BC808946054617464FF075
:204A7000FF31ADF1140D404605F023FC2A4C04EBC5046668256805F044FE216809680029BA
:204A90000BD42968002905DCB9F1000F09D04FF0FF3108E0B9F1000F03D0FBF765FC0024A0
:204AB00030E02968491C2960FBF75EFC2868022828DA1FB903A805F0C4FD03AF38686860FC
:204AD000B768684605F00FFC307B144A00946B463946019005F12C0003F000FE05F164002E
:204AF000002104F0F9FC05F14800012104F0F4FC706800F053FA0A4A05F118002346042153
:204B100004F000FE404605F012FE204605B0BDE8F083C0465835002018BA00002D9800008B
:204B30006BA6000030B51EA0ADF12C0D05F0BBF903F072FC03F0B2FC684605F043FB2A48DC
:204B50000024039001258DF8104028488DF8085069460190204603F0C1FC09940A94244948
:204B7000079101F57A7108914FF4FA71ADF8181080B106A92A4605F038FD011C04D14FF4E9
:204B90007A7005F0D9FEFAE709A005F08CF903F043FCFEE70FA005F086F903F03DFCFEE700
:204BB000756C747261736F6E6420496E69740A00636F6E76657274206661696C6564207233
:204BD000657475726E20636F6465203A2025640A00C046C0616463627566206F70656E20B2
:204BF0006661696C65640A001D8B0000400D0300F81200202DE9F843DFF8B0802A4E81467D
:204C10000C4639F07F0018D1B9F1050F12DA284DA86880472349096831F81920144321F8FC
:204C30001940E9688847306841460831426A0868904734E00320BDE8F883042004F05AFED9
:204C5000071C08BF04202BD04FF6FF7038807C8005F0AEFC41468C78A7F10C05FF2802D007
:204C7000896A09184C79FF2C08D1384604F0A6FF3068806880470120BDE8F883484604F026
:204C90004BFE33680146FF20A8721D68002220463B46A84718B1384604F090FFEBE7002067
:204CB000BDE8F883D835002088120020F8100020540E00202DE9F0410F46810001EBC0006A
:204CD000DFF8A88028490C180D58666807B94746387830B97888312818BF322814D1207A0E
:204CF00090B905F00EFD8446387830B96978AA7800230A4318BF012302E0217A69184B78C9
:204D10002BB16046FBF730FB0020BDE8F08118B901206870A87003E0207A0121281841703C
:204D30006046FBF721FB38782870B07900F036F92168606809780268267A11607D88036862
:204D500041468A1D3101A1EB4601505AB0F57F4F14BF1B1D08331D603979204604F0AAFC7E
:204D70002046BDE8F081C04640B40000B0B700002DE9B043044605F0C4FC814627480219ED
:204D900092F8F010491ECFB2002F82F8F0703FD1254901EB84014A880C78904634F07F07C3
:204DB00018D1E1090FD24FF0805000F5DC75D0F8B8018169104688472868416B40468847B9
:204DD0000228F9D11EE000EB8800D0F804110020884717E04FF08055D5F8B801016A104640
:204DF0008847D5F8B801816A40468847D5F8B801016B404688470A49012008600949086829
:204E10008008FCD304F03F003F2801D0FFF7B0FF4846FBF7A9FA0020BDE8B083400D002093
:204E3000282008602820084050B500002DE9F0410D4640F001011646CCB218B9062D38BF7C
:204E500044F0400405F054FB002700B9012739461F4F38680028FCD0DFF8788088F802406C
:204E700001243C6009B105F049FB1B490C6008688008FCD3002E08BF40F6011003D0184868
:204E9000066041F601601549086005F031FBEE00F5B2002600B92646314638680028FCD032
:204EB00088F800503C6009B105F028FB05F020FB002600B92646314638680028FCD003201B
:204ED00088F800003C6009B105F018FBBDE8F08100800C4018B00C4030600C4010900C4026
:204EF00000370840294838B5001D0468B4F1FF3F08BF002404F0AEFA032833D12448254BC7
:204F1000194A002501211038056003F15C00224B0160181D11600068806C80471348006888
:204F300020B113480068204601F068F8114812490560124C0A686FF35B4244EA0200086096
:204F50000F490868C0F30130012806D10A680D48104040F400320A6008600B49086800285A
:204F7000FCD138BDFEE7C0460822044380012843000120438C2108404820034000003901D9
:204F900004000940FFFFFCFC0C006842181300509404604200600C40EC010010F8B50646B1
:204FB00005F0AFFB264D0746A91991F8F000421C002881F8F0203ED1224C04EB86042678A4
:204FD00006F03F003F2801D0FFF7E8FF648836F07F0018D1F0090FD24FF0805000F5DC75CE
:204FF000D0F8B8014169204688472868416B204688470128F9D11EE005EB8405D5F8041184
:205010000120884717E04FF08055D5F8B801C16920468847D5F8B801416A20468847D5F86D
:20503000B801C16A20468847074901200860074908688008FCD33846FBF796F90020F8BD83
:20505000400D002050B50000282008602820084030B52648244908602548ADF1140DFDF746
:2050700083FA24480468244802680023D907500822600143D007801A99414FF47A72002337
:20509000FCF7AAFF002908BFB0F1004F28BF6FF000406060194C0025032004F1240141F83E
:2050B0000C5F401E8D60FAD104F154010620401E21F80C5BFBD101F0C7FD626810480392D9
:2050D000416801910368009381680291684602F079F903F05FFB03F099FB03F087FC05F0BA
:2050F00027FC284605B030BD80120020D934000024B50000B811002078BA0000540E002038
:20511000D8B800002DE9F04114460F4605F00CFC1FFA80F824480068007808B904F048FE24
:205130000FB338684FF0FF3518B140280AD3810B08D17E681EB1310A04D0310E02D1B96820
:205150000F2908D93DB10CB1284620700820FFF70FFE002422E04FF08055D5F8CC11BA684C
:205170000B68796808E04FF08055D5F8CC01036801224FF48070014698470C490120086070
:205190000B4905F5E67508684008FCD328684168022088470CB10021217004464046FBF774
:2051B000E3F82046BDE8F08100B50000A802504208800240F0B5284D05F12C0158C9ADF1D1
:2051D0001C0D02AA58C20AC982E80A0084684668206804F093FC216820488A6B10408863C3
:2051F000206840F2F271416496F83C0096F83D10C0100DEB800080680843216848636846DB
:2052100005F073FA317F05EB810120688B68717FB26955F821101943B37F05EB8305AB69DC
:205230000B43019904F028FC0D490A1F106840F010001060086840F001000860A07D00276A
:20525000FF2802D0E07DFF2800D11FB1086840F44040086007B0F0BD74B600000DF8FFFF03
:20527000301000402DE9F843894602F00107C2F3400605F046FA244C03258046B9F1FF3F0E
:2052900005D1E06B00280CBFA06BE06B03E04846002103F081FF002830D090F8275035F043
:2052B0007F052AD0E16B814211D00146324600F015FB10B304F1980005F01FFA2079012891
:2052D00019D004F1BC00022105F039FA13E090F827200121002F01FA07F141EA020180F82D
:2052F000271014BF09480A4804F0F8F91EB1A16B324600F0F3FA832500E004254046FBF7B3
:2053100033F82846BDE8F883982A002001000204010001042DE9FF41284B47688668144615
:205330000D4601A81A68998802609B798180A5428371A8BF2C1CB168786804F0BAFF78BBE4
:205350004FF00008CDF80080F068318A6D1C16A22B4604F08EFDA41C0246AC4213D9641B0C
:20537000F06801A90B681018036089888180308A921D801A082804D23868F16805F053F9C8
:205390004246641EECD1F3680BA00188D01801803868F168921C05F046F9786805F0C7F9CE
:2053B0000090BDE8FF81C0461B371B5B3130721B5B25643B256448001B3800C040BA00006F
:2053D0002DE9F84305F09DF9264C814694F8620100283AD000260121324694F8623101FAAD
:2053F00002F0184203D1521C032AF6D32DE094F8623110209040184218BF0E1C94F8621193
:20541000112090408143D0B284F8621104F000FED8B10168477C4568012E884606D0017CA2
:20543000022904D1C168490B01D302E08D6900F047FF012E19BF391C4FF000636FF0FE01A1
:205450004FF0007340460022A8474846FAF78CFF94F8620120B104F1F000002105F06FF9C6
:20547000BDE8F883982A00202DE9F0410646B76875688846ADF1280D684604F075FD0024B2
:205490008DF8014078680690012004F03BF86860686840B103F0A2F83878694603F0BEF85A
:2054B0002860286808B9264617E00421224605F0B5F898F80000401E08D0401E04D0401E1B
:2054D00014BF201C07A002E008A000E009A0A86028680AA1122205F0A6F830460AB0BDE814
:2054F000F081C0461B5B324B00C046C01B5B304B00C046C01B5B314B00C046C01B631B5B09
:20551000324A1B5B3130721B5B31313B31480000F8B5244F7E681EB9BDE8F14005F000BAC8
:205530003078401E012801D9C01E36D105F016F8002832D03078FEF791F90446656815B934
:20555000002004F027FC44B32078A64205D101281ED0002004F01EFC1AE001281DD1124906
:2055700012480A681249137AC05C087005F0D4F900F5C24000F1A801A86805F00DFA28B993
:2055900005F0CAF900F5E8504C30A8600120B8702046BDE8F24001F031B8BDE8F24000203B
:2055B00004F0F8BBA4350020104F0020289A01106F4F00202DE9F041904606460F1C08BFB0
:2055D00005243FD036F07F0003D02248006880688047052EA8BF032407DA57F80C0C18B9B0
:2055F00017F8020CFF2804D00524384604F0E6FA28E007F8026C154C154DA068B8F1010F0F
:2056100013D080470246002047F80C0CE868002808BFEF6005D0014651F80C0C18B941F8FC
:205630000C7C104606E00146F6E78047E96847F80C1CEF60E168884730464FF40041FFF79C
:20565000D9FA00242046BDE8F081C046540E0020F8100020881200202DE9F04105F051F8D8
:20567000244D214E804605F1E000007848B93446A168022088470746102002F067FE77B3B3
:205690001BE004F047FFC0091BD21B483C380068C4681648342101220023A04788B101F09A
:2056B00021FC34460020A16885F8E000022088470746102002F04AFE8FB1A16803208847DA
:2056D0000DE00B4800683221B1FBF0F101B901213035284605F00DF8284605F00CF840469C
:2056F000FAF742FEBDE8F08108B9000000A00C40D4350020400D0020E0010010F8B5054627
:20571000DFF890C06B68297A2C681A680CF106070801A0EB4100C1194E88B1F804E0395A17
:2057300040F2011048401C490143D0680140D160D1684E20B0408143D160297A04270801D8
:20575000A0EB4100002160440C3030F8026B7F1E46EA0101F9D19069884390610EEB020787
:2057700051624FF0FF31B96239630026BE633E649879FFF7FDFA04F0C4FF2178002904BF1D
:205790006670A67002D0297A64186670FAF7ECFDF8BDC046B0B70000FEFEFFFFF8B540F073
:2057B00001000F46C5B204F0A3FE002600B901261D4C314620680028FCD01C4EB570012560
:2057D000256009B104F09AFE19490D6008688008FCD3002F08BF40F6011003D01648076083
:2057F00041F601601349086004F082FE002700B92F46394620680028FCD0802030702560B4
:2058100009B104F07BFE04F073FE002700B92F46394620680028FCD003203070256009B19A
:2058300004F06CFEF8BDC04600800C4018B00C4030600C4010900C4000370840F0B520480B
:205850000127F84201D002F04DFB204D204F214EBD4206D203CD0478A4003459401CA047E9
:20587000F6E71D48002800D08047164D164FBD4202D210CDA047FAE7F0BD03251BE041685E
:2058900008300A1C2A400BD11A1C2A40AB4305D0046804300C600431043BF9D1131C05D0A3
:2058B000047801300C700131013BF9D1021C2A4001D0A84304300368002BE0D17047C046FB
:2058D000FFFFFFFF0000000000000000B4BD00003CBE000050BD000015C401102DE9F84309
:2058F000254C0F4604F13800016890460025B9421AD1002F3CD0814604F1440697F8270064
:2059100040F0040087F82700484604F015FB30463946002202F078FBA76B6D1CB8F1010F3B
:2059300026D1002FEAD123E0A16B00E0096821B1086810B108688742F8D10F1C18D0383492
:205950000C34386888B1396891F8270040F0040081F82700086800223860204602F054FB28
:205970006D1CB8F1010F01D002E03F68002FE8D12846BDE8F883C046982A00202DE9FC47C4
:2059900092460D46826844689168D768B2F810806068994604F08DFC0028504632D1FF2DB3
:2059B00010D0401CA8F102016B1C009016A2384604F05FFA0646A06828B10168B819361DAB
:2059D000016000E000260A9BA8EB0601B8194A46891E04F0B8FEFF2D064406D10D22701C57
:2059F0000A21BA55461C395404E00BA00188BD19B61C298020683946324604F014FE6068B8
:205A100004F095FEBDE8FC871B371B5B3130721B5B25643B256448001B3800002DE9FE4F6B
:205A3000244C80460CAF1E460192A0683D7800918047A146B8F1000F029005D1D9F80C1065
:205A500088470220BDE8FE8F174800274FF00F0B4FF0010A041F54F8080FD8B9012D0CBFDA
:205A7000124B134B1048019A008897FBFBF140180AFA07F1C0B2984760B90098C4F80080D0
:205A9000606006B13770D9F80C10029888470020BDE8FE8F7F1C0F2FDDDBD9F80C10029818
:205AB00088470820BDE8FE8FF00E002085890000A1830000540E0020002A4AD05FEA000C42
:205AD0008B071CD1830722D1102A08D370B4103A78C978C0103AFBD270BC103238D0042A03
:205AF0002CD3082A05D30C2A24BF08C908C008C908C008C908C092072AD0920F22E00B78F0
:205B10000370491C401C521E22D08B07F7D1C30714D18307D8D0121F12D308C903801B0C13
:205B30004380001D121FF8D20AE008C903701B0A43701B0A83701B0AC370001D121FF4D2F0
:205B5000121D05D00B780370491C401C521EF9D1604670472DE9F843234D884606464FF0C9
:205B7000FF3105F12800814604F0A3FB00200CE0FF2909D02A688A4204D305EB8101D1F8F1
:205B900098700FB1002627E0401CB8F1000F03D018F82010FE29EBD1002434607460012742
:205BB000B46011E0FF280ED005EB80000B787268C0F8986007FA03F0104370600A68094973
:205BD000304603F059F9641CB8F1000F04D008EB84010878FE28E5D1484604F0A8FD30467D
:205BF000BDE8F883007FC7672C0C0020B0B5456884682349607DA27DADF1180D40F00040D7
:205C10000090207D0027FF2A41EA000001904FF0020002D0E27DFF2A00D13FB1E37DA07D62
:205C30001943039140F0004002900420FE214DF8201005F158006946FFF78CFF6866002836
:205C500008BF381C1AD0617D0F2203F019FC686E217D102203F014FCA17D3846FF2902D0D9
:205C7000E27DFF2A00D140B1686E112203F008FC686EE17D122203F003FC012006B0B0BD2C
:205C90000000C0A02DE9F8432020EFF3118780F31188214CA068012104F03AFE4FF0010971
:205CB0004FF0000865692168A4F81C906A1A2168A4F81E80461B401A904227D387F311880D
:205CD00040462D18361A4846294604F01DFEB042F7D92021EFF3118781F31188E18B01296D
:205CF00003D14046294604F00FFEB0F1FF3F06D0A169801B814238BF081C291801E0A06967
:205D1000411904F0FDFDA4F820902560A4F81C8087F31188BDE8F883780100202DE9F0430D
:205D3000224C81461D4604F108002F68006816468846ADF1240D1FBB0C2000F0EFF9071CC5
:205D500016D0684600212422082304F0D5FD0023069749466A46ADF810301348059304F07C
:205D7000C7FD386038B904F0BEF9384603F050F86FF0030015E0C7F80480BE602F6008E033
:205D900080470546386804F02FFEBE60E168284688473868494604F023FE386804F01CFE8A
:205DB000002009B0BDE8F083E9A40000540E00202DE9F0470C468046E00BC00318BF84F471
:205DD000004437D1002C08BF002034D0DFF870904E46B0688047194B8246188800250122F2
:205DF000294602FA01F73C4203D1491C0F29F8DB1BE0CA004546C601E901A6EBC0001B1DE4
:205E1000A1EBC501461A551AB6182A189958F618BDB211B1D218506888474046294603F0B8
:205E3000D3F910B9002030607060D9F80C10504688476C40A0B2BDE8F087C046F00E0020AD
:205E5000540E00202DE9F843214D0746A868804781462048C36800246FF00B0680469C423B
:205E700013D013F8020C874208D134B16BB138464FF40041FEF7BEFE0CE01C460CB9A3F119
:205E90000C0653F80C3C002BEBD138464FF4004103F040F8ACB1A8688047D8F80C10A4F184
:205EB0000807A14219BF54F80C1C316057F8041CC8F80C10002147F8041CFF26BE71E96893
:205ED0008847E968484688472046BDE8F883C046540E0020F81000201F48F8B5006880699A
:205EF00080471E49204D0F686E68B7F57A7F13D0801B4FF47A720023A7FB0001FCF76CF83B
:205F100004464FF47A72002304F09AF83A460023FCF762F8301800E0841B6860114D05F17C
:205F30000800006880470E4E316872680919B1F57A7F0AD34FF47A73B1FBF3F7D21972602A
:205F5000B1FBF3F707FB03F2891A3160E96888472046FEF729FCF8BD881200201011002020
:205F7000E8110020540E0020983500202DE9F04180461E4800680D46416927208847012476
:205F900004FA05F61A4DC5F80064C5F87C470327C5F8807717480460C5F88477D5F80404C2
:205FB000012818BFC5F80444C5F8FC6312480460C5F800801023AB60204604F06CFBD5F8E9
:205FD0008C074008F8D3D5F88C17204611F0404F09D1C5F884770021C5F8FC16D5F8002432
:205FF000164218BF081CBDE8F081C046B00100100440024000E0484200004842204A2DE967
:20601000F04180460124A2F13000046019480768002FFCD01B49184DC0200B1F2860186887
:20603000800806D253F8040C144B000C40F0F000187000204FF080571060D7F8F0010E68A6
:20605000016830468847D7F8F0014268314640469047D7F8F001816830468847D7F8A001E6
:20607000C1680220884740202860074E3460BDE8F081C0469402224300600C405662084062
:2060900040100940B43F00509404604230B50D46280483B011D51D490878FFF7D3FE0400AC
:2060B00009D02078032812BF0128E06801F0F4FE204603F083FD85F4004568070AD51449CD
:2060D0006846D1E90023C0E90023082101F0D2FD85F0040528070AD50E496846D1E9002302
:2060F000C0E90023082101F0C5FD85F00805E8060AD509496846D1E90023C0E900230821C7
:2061100001F0B8FD85F0100528463EBDE4350020C4BA0000CCBA0000D4BA0000F8B5041D3D
:2061300014F003001CBF241A241D03F095FE1D4A054657691561102C88BF9769386800233A
:206150001E46010821D226B9844209D93B4601261EE0196809188C42196019D81F46084615
:20617000DFB1D169001B042807D23868091AD161386840F00040386005E0385144F00040A6
:206190003860091BD1613F1D07E080F0004000263F1838680028D4D10027284603F0AEFFEF
:2061B0003846F8BD540E002070B506467468B568606E03F053FD29681C488A6B104088637A
:2061D000304600F037F8304600F098FF2968C86A20F01000C862296815480A6B10400863F2
:2061F0006868FEF7C5FD04F1800004F088FA04F19C0004F09EFAA07818B904F1D00004F05E
:2062100094FA607818B904F1EC0004F08EFA04F5847004F068FA04F074FA00212170FAF792
:20623000A3F804F16C0003F099FC70BD0DF8FFFFFEFCFFFF2DE9F04106467568B46804F022
:2062500060FAA96A39B921688969090903D2FAF78BF8BDE8F0810027AF62FAF785F8A17D1F
:206270003846FF2902D0E17DFF2900D118B12846214600F0C8FB2168886B20F02000886357
:206290000D49086820F48070086004F03AFA0B4C8046207818B1022002F008FE27704046DF
:2062B000FAF762F8686A296A091A29622B696A6A30469847BDE8F08130100040E3350020E5
:2062D0002DE9FC41074604F01CFA804697B3787C1B4D012404FA00F1CEB22968490811D33E
:2062F000184900F1110204FA02F5091F0B1D1A68AA4300F111051A60234603FA05F20B6824
:2063100093430B60104D8440002105F5B0721088B9740443148038460A46009113460191E4
:2063300003F082FF95F86301401E85F86301304600F0EEFA4046FAF717F8BDE8FC81C046AD
:20635000402108400C100440982A00202DE9F04107461E49BE687C68306809688069C0F398
:20637000C00008BB04F0CDF9194D8046287820B1022002F09BFD002028704046F9F7F4FF66
:206390003168144D886B20F020008863286820F480702860606A216A091A21622369626A76
:2063B00038469847BDE8F0814FF4FA70B0FBF1F1012998BF012104F58474204604F099F9A0
:2063D000204604F098F9BDE8F081C046D4350020E3350020301000402DE9F843044600200A
:2063F00003F07CFB1E4F0546B8688047814602F0E1FB064604222146284604F000F9304645
:2064100003F0BAFCB8460025012602E02D1D241DADB23046411ECEB2C8B12846694604229C
:2064300002F012FE611E0420ADF1010C11F8012F1CF8013F00279A4218BF01271FB9401E37
:20645000F4D1002FE2D00549012048700870D8F80C1048468847BDE8F883C0467C120020CA
:20647000540E0020F8B500680E4617464FF0FF310446483003F01DFF4FF0FF35092E08D002
:20649000217A0120B040084211D108433546207210E0227A0721012303FA01F0104202D0D2
:2064B000491EF9D503E0227A0D4610432072B5F1FF3F15D0A7B1062002F03EFE294638467E
:2064D000FFF754FD0746062002F0F0FC47B1217A0120A8404FF0FF3580F0FF0008402072BC
:2064F00004F1480004F023F92846F8BDF8B503F0FFFF002400B90124194E214630680028EE
:20651000FCD01B4D492001241035A870346009B103F0F4FF03F0ECFF002700B9274639466E
:2065300030680028FCD0FB202870346009B103F0E5FF03F0DDFF002700B9274639463068B4
:206550000028FCD06C70346009B103F0D7FF0548046000210160044F3960044E3160F8BD8D
:2065700000800C400402924330600C4010900C4018B00C4070B51D490A685379012B07D0BC
:206590001B4C1C4D1C4EE0B1012803D0122070BD0C2070BD307838BB05F10D0004F0A4F93D
:2065B00068B9726820784FF4805101F0F1FE08B1032070BDE91D05F10D0004F0E9F901203B
:2065D00011E0307880B105F10D0004F08DF948B920784FF4805102F041FB20784FF48051DD
:2065F00002F098FC00203070002070BD104F00206E4F0020AC450020784E00207CB5040070
:2066100004BF002003F0C6FB16494C60606900B180476068017B01F00F0102290CBF806864
:2066300004F07AF9A0601049104B0878002814BF0F4810480021CDE90001022261680E4CE6
:206650000E482568006855F8086FB0470C4910F1020F088004D1BDE87640002003F09ABB9D
:2066700073BD00BFA4350020784E00206D9500000204848002048080F04E0020EC4E002072
:20669000424F00202DE9F8431F4C04F13C001C4D06681C48011F0A681540EB430B600A681F
:2066B0001542FBD10368076803F0200307F460272B4014D09EB106F1180090E80003266483
:2066D00000211A00183641EA080804F1BC0042EA09094FF4005186E8000304F030F817EAD5
:2066F00005000AD094F8621141EA504084F86201002104F1F00004F022F8BDE8F883C046D8
:2067100020000E000C100440982A002010B5994201D1904233D050EA020404D141EA03046B
:206730006400002C2BD050EA410401D19C4226E04C006415641C07D15C006415641C03D143
:20675000DC0FB4EBD1741AE0002B0CD4002916D4994214D190EA020401D490420FE0002A42
:206770000DD101240BE0002909DC8B4207D190EA020401D4824202E0002800D10124EFF36D
:20679000008454BF44F0005424F0005484F3008810BD10B58B4201D1824233D052EA00042B
